:100000000C9434000C9453000C9451000C94510047
:100010000C9451000C9451000C9451000C9451001C
:100020000C9451000C9451000C9451000C9451000C
:100030000C9451000C9451000C9451000C945100FC
:100040000C947F000C9451000C9409030C94510003
:100050000C9451000C9451000C9451000C945100DC
:100060000C9451000C94510011241FBECFEFD8E026
:10007000DEBFCDBF12E0A0E0B1E0ECEFF0E202C0E5
:1000800005900D92A036B107D9F712E0A0E6B2E0D4
:1000900001C01D92A138B107E1F70E94AC040C9495
:1000A0007C100C9400001F920F920FB60F92112437
:1000B0008F939F93EF93FF93DF93CF930F92CDB7DF
:1000C000DEB7EFE5F0E080818983F89480916202E9
:1000D0009091630201969093630280936202EFE530
:1000E000F0E0898180830F90CF91DF91FF91EF91B4
:1000F0009F918F910F900FBE0F901F9018951F9298
:100100000F920FB60F921124EF92FF920F931F934D
:100110002F933F934F935F936F937F938F939F930F
:10012000AF93BF93EF93FF93DF93CF9300D00F92E2
:10013000CDB7DEB7EFE5F0E080818983F894809158
:100140006502909166028630910508F43BC21092D8
:1001500066021092650280916402813009F0ACC0A1
:1001600080916202909163029C01220F331F220F43
:10017000331FC901880F991F880F991F820F931F82
:10018000909361028093600280916002909161027D
:1001900020E031E0B9014AE050E00E948E0D80E09D
:1001A00091E00E944F05109263021092620220912A
:1001B0001701309118018091600290916102A901AC
:1001C000481B590BCA01AA2797FDA095BA2FBC015D
:1001D000CD010E94090ADC01CB0180936702909354
:1001E0006802A0936902B0936A0280911B0190910A
:1001F0001C01CC01A0E0B0E0BC01CD010E94BB0A13
:10020000DC01CB01209167023091680240916902C4
:1002100050916A02BC01CD010E94D307DC01CB01E1
:100220008093730290937402A0937502B093760248
:100230008091730290917402A0917502B091760240
:10024000BC01CD0120E030EC4FE754E40E94790975
:1002500018163CF4E8E8F0E08FEF93E09183808398
:10026000B1C18091730290917402A0917502B09116
:100270007602BC01CD0120E030E040E050E00E9479
:10028000D90988232CF4E8E8F0E0118210829AC1A1
:1002900008E810E08091730290917402A0917502B9
:1002A000B0917602BC01CD010E94FD05DC01CB01BD
:1002B000F8019183808386C180916402823009F0C5
:1002C00050C180916202909163029C01220F331F02
:1002D000220F331FC901880F991F880F991F820FA2
:1002E000931F9093610280936002809160029091CD
:1002F000610220E031E0B9014AE050E00E948E0D39
:1003000080E091E00E944F05109263021092620219
:100310002091170130911801809160029091610243
:10032000A901481B590BCA01AA2797FDA095BA2F0E
:10033000BC01CD010E94090ADC01CB018093670258
:1003400090936802A0936902B0936A0280916B0255
:1003500090916C02A0916D02B0916E0280936F0239
:1003600090937002A0937102B09372028091190170
:1003700090911A01CC01A0E0B0E0BC01CD010E9437
:10038000BB0ADC01CB0120911F013091200140917B
:10039000210150912201BC01CD010E94D307DC0153
:1003A000CB017C018D0180911D0190911E01CC013A
:1003B000A0E0B0E0BC01CD010E94BB0A9B01AC01F2
:1003C000C801B7010E94CD08DC01CB012091670272
:1003D000309168024091690250916A02BC01CD01DE
:1003E0000E94D307DC01CB0120916B0230916C029B
:1003F00040916D0250916E02BC01CD010E94A60792
:10040000DC01CB0180936B0290936C02A0936D0290
:10041000B0936E028091190190911A01CC01A0E075
:10042000B0E0BC01CD010E94BB0ADC01CB012091F0
:100430006702309168024091690250916A02BC01E2
:10044000CD010E94D307DC01CB0120916B023091DA
:100450006C0240916D0250916E02BC01CD010E9470
:10046000A607DC01CB018093730290937402A093E2
:100470007502B09376028091730290917402A091FC
:100480007502B09176021B82BC01CD0120E030ECF8
:100490004FE754E40E94D909882314F451E05B83A8
:1004A00081E09B818927882371F580917302909167
:1004B0007402A0917502B09176021A82BC01CD013E
:1004C00020E030E040E050E00E94A909882314F0C9
:1004D000E1E0EA8381E0FA818F278823A1F408E82C
:1004E00010E08091730290917402A0917502B09116
:1004F0007602BC01CD010E94FD05DC01CB01F801B3
:10050000918380835FC08091730290917402A09167
:100510007502B0917602BC01CD0120E030E040E0F0
:1005200050E00E9479091816BCF4E8E8F0E08FEF7B
:1005300093E09183808380916F0290917002A091EB
:100540007102B091720280936B0290936C02A0933F
:100550006D02B0936E0236C0E8E8F0E011821082BE
:1005600031C080916402833069F58091620290917C
:1005700063029C01220F331F220F331FC901880F12
:10058000991F880F991F820F931F90936102809388
:100590006002809160029091610220E031E0B90137
:1005A0004AE050E00E948E0D80E091E00E944F05ED
:1005B0001092630210926202E8E8F0E08FEF93E09D
:1005C0009183808380916502909166020196909359
:1005D000660280936502EFE5F0E0898180830F90E9
:1005E0000F900F90CF91DF91FF91EF91BF91AF915D
:1005F0009F918F917F916F915F914F913F912F913B
:100600001F910F91FF90EF900F900FBE0F901F90D2
:1006100018951F920F920FB60F9211240F931F93EC
:100620002F933F934F935F936F937F938F939F93FA
:10063000AF93BF93EF93FF93DF93CF93CDB7DEB725
:100640006997DEBFCDBFEFE5F0E080818D83F89440
:1006500087E091E00E948C0587E091E023E231E0A1
:10066000B9010E94850D009791F410926402ADE3E8
:10067000B0E0EDE3F0E080818E7F8C93E8E8F0E07D
:1006800011821082109263021092620249C187E0C7
:1006900091E028E231E0B9010E94850D009759F4FC
:1006A00081E080936402ADE3B0E0EDE3F0E08081AF
:1006B00081608C9335C187E091E02FE231E0B90190
:1006C0000E94850D009759F482E080936402ADE3A7
:1006D000B0E0EDE3F0E0808181608C9321C187E0A0
:1006E00091E027E331E0B9010E94850D009759F4AC
:1006F00083E080936402ADE3B0E0EDE3F0E080815D
:1007000081608C930DC187E091E02FE331E0B90166
:100710000E94850D009709F040C080916402282F47
:1007200030E040911B0150911C01609119017091C2
:100730001A01A0911D01B0911E01009117011091A5
:1007400018018DB79EB70E970FB6F8949EBF0FBED7
:100750008DBFEDB7FEB73196CE01069691838083AB
:1007600089E491E09383828335832483578346838E
:1007700071876087B387A287158704870E94B70DAA
:100780008DB79EB70E960FB6F8949EBF0FBE8DBF65
:10079000CE0106960E944F05C3C08091070187379E
:1007A00059F581E08C8314C08C81882F90E09C01E6
:1007B000215030408C81882F90E0FC01E95FFE4F92
:1007C0008081F901E958FD4F80838C818F5F8C8394
:1007D0008C81882F90E0FC01E95FFE4F8081853697
:1007E00019F787E792E00E94600D909318018093BB
:1007F00017010E94060594C080910701803759F5C2
:1008000081E08B8314C08B81882F90E09C01215064
:1008100030408B81882F90E0FC01E95FFE4F8081A2
:10082000F901E958FD4F80838B818F5F8B838B812A
:10083000882F90E0FC01E95FFE4F8081853619F733
:1008400087E792E00E94600D90931C0180931B014A
:100850000E94060565C0809107018B3659F581E03D
:100860008A8314C08A81882F90E09C0121503040F7
:100870008A81882F90E0FC01E95FFE4F8081F901B9
:10088000E958FD4F80838A818F5F8A838A81882F10
:1008900090E0FC01E95FFE4F8081853619F787E71C
:1008A00092E00E94600D90931A01809319010E94BA
:1008B000060536C080910701843759F581E08983A8
:1008C00014C08981882F90E09C012150304089819B
:1008D000882F90E0FC01E95FFE4F8081F901E95823
:1008E000FD4F808389818F5F89838981882F90E084
:1008F000FC01E95FFE4F8081853619F787E792E0BA
:100900000E94600D90931E0180931D010E940605B8
:1009100007C080910701833719F483E08093640254
:10092000EFE5F0E08D8180836996DEBFCDBFCF918A
:10093000DF91FF91EF91BF91AF919F918F917F9147
:100940006F915F914F913F912F911F910F910F9058
:100950000FBE0F901F901895DF93CF93CDB7DEB7E2
:10096000A4E2B0E0E4E2F0E0808182608C93EAE20D
:10097000F0E010827894ADE3B0E0EDE3F0E0808148
:100980008E7F8C93A9E6B0E0E9E6F0E0808181609B
:100990008C93A9E6B0E0E9E6F0E0808182608C9378
:1009A000A8E6B0E0E8E6F0E0808181608C93ABE6F9
:1009B000B0E0EBE6F0E0808181608C93E5E4F0E06C
:1009C00085E08083E4E4F0E01082AEE6B0E0EEE69D
:1009D000F0E0808181608C93E1E8F0E085E0808345
:1009E000A1E8B0E0E1E8F0E0808188608C93E0E885
:1009F000F0E083E88083E8E8F0E011821082E4E828
:100A0000F0E0118210820E941505FFCFDF93CF9393
:100A1000CDB7DEB787E792E060E070E04AE050E0F3
:100A20000E947E0DCF91DF910895DF93CF93CDB7D4
:100A3000DEB7E4ECF0E087E68083E5ECF0E01082DE
:100A4000A1ECB0E0E1ECF0E0808188618C93A2EC55
:100A5000B0E0E2ECF0E0808186608C93A1ECB0E045
:100A6000E1ECF0E0808180688C93CF91DF91089574
:100A7000DF93CF930F92CDB7DEB78983E0ECF0E040
:100A80008081882F90E0807290700097B9F3E6EC37
:100A9000F0E0898180830F90CF91DF910895DF93FB
:100AA000CF9300D00F92CDB7DEB79B838A83198294
:100AB00010C08981282F30E08A819B81FC01E20FE0
:100AC000F31F8081982F89818F5F8983892F0E94EE
:100AD00038058981282F30E08A819B81FC01E20F53
:100AE000F31F8081882329F78AE00E9438050F9040
:100AF0000F900F90CF91DF910895DF93CF93CDB7F3
:100B0000DEB7E0ECF0E080818823DCF7E6ECF0E093
:100B10008081CF91DF9108950F931F93DF93CF933F
:100B200000D000D0CDB7DEB79B838A83198289813C
:100B3000282F30E08A819B818C01020F131F0E94B5
:100B40007D05F80180838981282F30E08A819B818F
:100B5000FC01E20FF31F80811C828A3011F0F1E06A
:100B6000FC8389818F5F89838C81882301F7898148
:100B7000882F90E09C01215030408A819B81FC01AC
:100B8000E20FF31F10820F900F900F900F90CF91F4
:100B9000DF911F910F910895DF93CF9300D00F92B3
:100BA000CDB7DEB79B838A83198210C08981282F35
:100BB00030E08A819B81FC01E20FF31F8081982F36
:100BC00089818F5F8983892F0E9438058981282F29
:100BD00030E08A819B81FC01E20FF31F8081882332
:100BE00029F78DE00E9438058AE00E9438050F90B1
:100BF0000F900F90CF91DF910895EF92FF920F9396
:100C00001F937B018C0120E030E040E05FE40E9414
:100C1000A90988238CF0C801B70120E030E040E04A
:100C20005FE40E9475070E94670A9B01AC01205097
:100C300030404040504806C0C801B7010E94670AD2
:100C40009B01AC01B901CA011F910F91FF90EF9078
:100C50000895A0E0B0E0EFE2F6E00C94290DDC018D
:100C60002B01FA019C91923008F439C1EB01888183
:100C7000823008F433C1943069F4843009F02FC114
:100C800011969C9111978981981709F428C1A7E5BD
:100C9000B1E025C1843009F421C18230A9F4923039
:100CA00009F01DC19A01AD0188E0EA010990AE0189
:100CB000E90109929E018150C1F7E20189811196F3
:100CC0009C918923818308C1923009F407C112964F
:100CD0002D903C901397EB018A819B811496AD90E7
:100CE000BD90CD90DC901797EC80FD800E811F8128
:100CF0009101281B390BB90137FF04C066277727FC
:100D0000621B730B603271050CF061C01216130682
:100D10006CF537014801062E04C0969487947794A9
:100D200067940A94D2F721E030E040E050E004C03C
:100D3000220F331F441F551F6A95D2F721503040B0
:100D4000404050402E213F214023512321153105A1
:100D50004105510521F021E030E040E050E079010B
:100D60008A01E628F728082919293CC0232BD1F14C
:100D7000260E371E35014601062E04C09694879430
:100D8000779467940A94D2F721E030E040E050E095
:100D900004C0220F331F441F551F6A95D2F72150FC
:100DA0003040404050402A213B214C215D212115FB
:100DB00031054105510521F021E030E040E050E0EF
:100DC00059016A01A628B728C828D9280BC082155E
:100DD00093052CF01C01AA24BB24650103C0EE245A
:100DE000FF24870111969C91D20111968C9198173E
:100DF00009F445C0992339F0A80197012A193B0944
:100E00004C095D0906C0A60195012E193F09400B4A
:100E1000510B57FD08C0118233822282248335830F
:100E2000468357831DC081E08183338222828827D5
:100E30009927DC01821B930BA40BB50B848395834C
:100E4000A683B7830DC0220F331F441F551F248371
:100E5000358346835783828193810197938382836D
:100E60002481358146815781DA01C9010197A109A1
:100E7000B1098F5F9F4FAF4FBF4328F30BC09183E2
:100E800033822282EA0CFB1C0C1D1D1DE482F582BC
:100E90000683178383E080832481358146815781CF
:100EA00057FF1AC0C901AA2797FDA095BA2F8170D4
:100EB0009070A070B0705695479537952795822B06
:100EC000932BA42BB52B84839583A683B783828130
:100ED0009381019693838283DF0101C0D201CD010A
:100EE000CDB7DEB7E2E10C94450DA0E2B0E0EBE750
:100EF000F7E00C94350D69837A838B839C832D8373
:100F00003E834F835887E9E0EE2EF12CEC0EFD1E58
:100F1000CE010196B7010E94580C8E010F5E1F4F43
:100F2000CE010596B8010E94580C8A8991E0892764
:100F30008A8BC701B801AE01475E5F4F0E94290648
:100F40000E94830BA096E6E00C94510DA0E2B0E065
:100F5000ECEAF7E00C94350D69837A838B839C83EC
:100F60002D833E834F835887F9E0EF2EF12CEC0E52
:100F7000FD1ECE010196B7010E94580C8E010F5E36
:100F80001F4FCE010596B8010E94580CC701B80149
:100F9000AE01475E5F4F0E9429060E94830BA09618
:100FA000E6E00C94510DA0E2B0E0E9EDF7E00C941E
:100FB000290D69837A838B839C832D833E834F83A2
:100FC0005887CE010196BE01675F7F4F0E94580C83
:100FD000CE010596BE016F5E7F4F0E94580C998529
:100FE000923088F089898230C8F0943019F48230C8
:100FF00051F404C0843029F4923081F487E591E003
:10100000C6C0923049F420E09A858A89981321E07D
:101010002A87CE010996BBC0823049F420E09A8528
:101020008A89981321E02A8BCE014196B0C02D8485
:101030003E844F8458886D887E888F88988CEE24F3
:10104000FF248701AA24BB24650140E050E060E052
:1010500070E0E0E0F0E0C10181709070892BE9F070
:10106000E60CF71C081D191D9A01AB012A0D3B1D4A
:101070004C1D5D1D80E090E0A0E0B0E0E614F704B8
:101080000805190520F481E090E0A0E0B0E0BA0185
:10109000A901480F591F6A1F7B1FAA0CBB1CCC1C3F
:1010A000DD1C97FE08C081E090E0A0E0B0E0A82A37
:1010B000B92ACA2ADB2A3196E032F10549F0660CDA
:1010C000771C881C991C5694479437942794C3CF57
:1010D000FA85EA892B893C898B859C85280F391FE5
:1010E0002E5F3F4F17C0CA0181709070892B61F04D
:1010F00016950795F794E79480E090E0A0E0B0E8BB
:10110000E82AF92A0A2B1B2B769567955795479560
:101110002F5F3F4F77FDE7CF0CC0440F551F661F71
:10112000771F17FD4160EE0CFF1C001F111F21509F
:101130003040403090E0590790E0690790E479072B
:1011400060F32B8F3C8FDB01CA018F779070A0700A
:10115000B07080349105A105B10561F447FD0AC066
:10116000E114F1040105110529F0405C5F4F6F4F58
:101170007F4F40781A8EFE1711F081E08A8F4D8FD5
:101180005E8F6F8F78A383E0898FCE0149960E948E
:10119000830BA096E2E10C94450DA8E1B0E0E3EDED
:1011A000F8E00C94310D69837A838B839C832D83C3
:1011B0003E834F835887B9E0EB2EF12CEC0EFD1ED9
:1011C000CE010196B7010E94580C8E010F5E1F4F91
:1011D000CE010596B8010E94580C2985223008F4EA
:1011E0007EC03989323010F4B8017CC08A859A8972
:1011F00089278A87243011F0223031F4231709F02F
:101200006EC067E571E06EC0343039F41D861E860D
:101210001F86188A1C861B8604C0323021F484E0A5
:101220008987B7015FC02B853C858B899C89281BEA
:10123000390B3C872B87ED84FE840F851889AD8898
:10124000BE88CF88D88CEA14FB040C051D0540F439
:10125000EE0CFF1C001F111F215030403C872B87D4
:1012600020E030E040E050E080E090E0A0E0B0E43A
:1012700060E070E0EA14FB040C051D0540F0282B2B
:10128000392B4A2B5B2BEA18FB080C091D09B69574
:10129000A79597958795EE0CFF1C001F111F6F5F98
:1012A0007F4F6F31710531F7DA01C9018F77907087
:1012B000A070B07080349105A105B10561F427FDDF
:1012C0000AC0E114F1040105110529F0205C3F4F2B
:1012D0004F4F5F4F20782D873E874F87588BBE0139
:1012E000675F7F4FCB010E94830B6896EAE00C9406
:1012F0004D0DA8E1B0E0EFE7F9E00C94350D6983FE
:101300007A838B839C832D833E834F83588789E028
:10131000E82EF12CEC0EFD1ECE010196B7010E94C5
:10132000580C8E010F5E1F4FCE010596B8010E942A
:10133000580C8985823040F08989823028F0C701B5
:10134000B8010E94D00C01C08FEF6896E6E00C94C3
:10135000510DA8E1B0E0EFEAF9E00C94350D698396
:101360007A838B839C832D833E834F83588789E0C8
:10137000E82EF12CEC0EFD1ECE010196B7010E9465
:10138000580C8E010F5E1F4FCE010596B8010E94CA
:10139000580C8985823040F08989823028F0C70155
:1013A000B8010E94D00C01C08FEF6896E6E00C9463
:1013B000510DA8E1B0E0EFEDF9E00C94350D698333
:1013C0007A838B839C832D833E834F83588789E068
:1013D000E82EF12CEC0EFD1ECE010196B7010E9405
:1013E000580C8E010F5E1F4FCE010596B8010E946A
:1013F000580C8985823040F08989823028F0C701F5
:10140000B8010E94D00C01C081E06896E6E00C941F
:10141000510DA8E0B0E0EFE0FAE00C94320D9B0132
:10142000AC0183E08983DA01C9018827B7FD839580
:101430009927AA27BB27B82E21153105410551054B
:1014400019F482E089833AC08823A9F0203080E033
:10145000380780E0480780E8580729F460E070E02A
:1014600080E09FEC30C0EE24FF248701E21AF30AEB
:10147000040B150B02C079018A018EE1C82ED12C14
:10148000DC82CB82ED82FE820F831887C801B70110
:101490000E94340B01971816190684F4082E04C014
:1014A000EE0CFF1C001F111F0A94D2F7ED82FE8282
:1014B0000F831887C81AD90ADC82CB82BA82CE0180
:1014C00001960E94830B2896E9E00C944E0DACE047
:1014D000B0E0EDE6FAE00C94390D69837A838B83F2
:1014E0009C83CE010196BE016B5F7F4F0E94580C1A
:1014F0008D81823061F1823050F1843021F48E810F
:10150000882351F12EC02F81388537FD20C06E8190
:101510002F3131051CF06623F9F023C08EE190E0F5
:10152000821B930B29853A854B855C8504C05695B3
:101530004795379527958A95D2F76623B1F0509550
:101540004095309521953F4F4F4F5F4F0EC020E0A3
:1015500030E040E050E009C02FEF3FEF4FEF5FE792
:1015600004C020E030E040E050E8B901CA012C9608
:10157000E2E00C94550DA8E0B0E0E1ECFAE00C9448
:10158000310D7B018C01611571058105910519F4FF
:1015900082E0898360C083E089838EE1C82ED12CEC
:1015A000DC82CB82ED82FE820F831887C801B701EF
:1015B0000E94340BFC013197F7FF3BC022273327F1
:1015C0002E1B3F0B57016801022E04C0D694C7940E
:1015D000B794A7940A94D2F740E050E060E070E03E
:1015E00081E090E0A0E0B0E004C0880F991FAA1F3E
:1015F000BB1F2A95D2F70197A109B1098E219F211E
:10160000A023B1230097A105B10521F041E050E0EE
:1016100060E070E04A295B296C297D294D835E8357
:101620006F8378878EE190E08E1B9F0B9C838B836A
:1016300012C0309781F00E2E04C0EE0CFF1C001F6C
:10164000111F0A94D2F7ED82FE820F831887CE1AFB
:10165000DF0ADC82CB821A82CE0101960E94830BC4
:101660002896EAE00C944D0DEF92FF920F931F9392
:101670007B018C0180E0E81680E0F80681E0080735
:1016800080E0180788F48FEFE816F10401051105D2
:1016900031F028F088E090E0A0E0B0E017C080E0F2
:1016A00090E0A0E0B0E012C080E0E81680E0F8062C
:1016B00080E0080781E0180728F088E190E0A0E0CA
:1016C000B0E004C080E190E0A0E0B0E020E230E0D3
:1016D00040E050E0281B390B4A0B5B0B04C0169509
:1016E0000795F794E7948A95D2F7F701E15AFE4FF0
:1016F0008081281B310941095109C9011F910F91AE
:10170000FF90EF900895DF92EF92FF920F931F9357
:10171000FC01E480F58006811781D18080818230D0
:1017200048F480E090E0A0E1B0E0E82AF92A0A2B32
:101730001B2BA5C0843009F49FC0823021F4EE2415
:10174000FF24870105C0E114F1040105110519F416
:10175000E0E0F0E096C0628173819FEF6238790724
:101760000CF05BC022E83FEF261B370B2A31310516
:101770002CF020E030E040E050E02AC0B801A701A2
:10178000022E04C076956795579547950A94D2F72F
:1017900081E090E0A0E0B0E004C0880F991FAA1F8C
:1017A000BB1F2A95D2F70197A109B1098E219F216C
:1017B000A023B1230097A105B10521F081E090E0BD
:1017C000A0E0B0E09A01AB01282B392B4A2B5B2B10
:1017D000DA01C9018F779070A070B07080349105E4
:1017E000A105B10539F427FF09C0205C3F4F4F4FD9
:1017F0005F4F04C0215C3F4F4F4F5F4FE0E0F0E090
:101800002030A0E03A07A0E04A07A0E45A0710F011
:10181000E1E0F0E079018A0127C06038710564F5E4
:10182000FB01E158FF4FD801C7018F779070A0707E
:10183000B07080349105A105B10539F4E7FE0DC003
:1018400080E490E0A0E0B0E004C08FE390E0A0E08E
:10185000B0E0E80EF91E0A1F1B1F17FF05C0169502
:101860000795F794E794319687E016950795F794D6
:10187000E7948A95D1F705C0EE24FF248701EFEFA6
:10188000F0E06E2F679566276795902F9F77D79426
:10189000DD24D7948E2F8695492F462B582F5D290E
:1018A000B701CA011F910F91FF90EF90DF9008954B
:1018B000FC01DB01408151812281622F6F7770E052
:1018C000221F2227221F9381892F880F822B282FE6
:1018D00030E0991F9927991F11969C931197211514
:1018E0003105A9F5411551056105710511F482E035
:1018F00037C082E89FEF13969C938E9312979A01BC
:10190000AB0167E0220F331F441F551F6A95D1F7C3
:1019100083E08C930DC0220F331F441F551F129676
:101920008D919C911397019713969C938E93129788
:10193000203080E0380780E0480780E4580758F3FB
:1019400014962D933D934D935C93179708952F3FD5
:10195000310579F4411551056105710519F484E0EB
:101960008C93089564FF03C081E08C9312C01C9295
:1019700010C02F57304013963C932E93129783E05C
:101980008C9387E0440F551F661F771F8A95D1F708
:10199000706414964D935D936D937C93179708959F
:1019A0001F93DC01FB019C91923008F447C08081B9
:1019B000823008F443C0943051F411961C91843065
:1019C00099F58181682F70E0611B71093FC08430F7
:1019D00021F0923031F48230B9F18181882389F18C
:1019E0002DC011961C9111978230F1F0818118174A
:1019F000D9F412962D913C9113978281938182178D
:101A0000930794F028173907BCF014968D919D9197
:101A10000D90BC91A02D24813581468157812817D6
:101A200039074A075B0718F4112341F00AC08217EF
:101A30009307A407B50740F4112319F061E070E0A3
:101A400005C06FEF7FEF02C060E070E0CB011F9137
:101A500008952F923F924F925F926F927F928F9252
:101A60009F92AF92BF92CF92DF92EF92FF920F932D
:101A70001F93CF93DF93CDB7DEB7CA1BDB0B0FB637
:101A8000F894DEBF0FBECDBF09942A8839884888F4
:101A90005F846E847D848C849B84AA84B984C8848A
:101AA000DF80EE80FD800C811B81AA81B981CE0F81
:101AB000D11D0FB6F894DEBF0FBECDBFED01089566
:101AC000FC0188279927E89421912032E9F32930F5
:101AD00010F02E30C8F32B3241F02D3239F46894D7
:101AE00004C00E94AF0D820F911D219120532A3016
:101AF000C0F31EF4909581959F4F0895DC0101C0BD
:101B00006D9341505040E0F70895FB01DC018D9149
:101B1000019080190110D9F3990B0895FB019F01E1
:101B2000E8944230C4F04532B4F44A3029F497FBCB
:101B30001EF4909581959F4F642F77270E9468101F
:101B4000805D8A330CF0895D8193CB010097A1F70A
:101B500016F45DE251931082C9010C94CE0F7AE025
:101B6000979F902D879F802D910D11240895AEE0B1
:101B7000B0E0EDEBFDE00C94370D0D891E8986E099
:101B80008C831A8309838FEF9FE79E838D839E0149
:101B9000275E3F4FCE0101966F89788DA9010E9483
:101BA000DB0D2F813885020F131FF80110822E964E
:101BB000E4E00C94530DABE0B0E0E1EEFDE00C94FA
:101BC000290D3C012B015A01FC01178216828381E9
:101BD00081FD03C06FEF7FEFC6C19AE0892E1E0121
:101BE0000894211C311CF3012381F20123FD85910E
:101BF00023FF81912F01882309F4B2C1853239F482
:101C000023FD859123FF81912F01853229F490E0F6
:101C1000B3010E94DE0FE7CF982FFF24EE24992412
:101C2000FFE1FF15D0F09B3269F09C3228F490322E
:101C300059F0933291F40EC09D3249F0903369F41B
:101C400041E024C052E0F52A84E0F82A28C098E058
:101C5000F92A25C0E0E1FE2A22C0F7FC29C0892F1D
:101C600080538A3070F4F6FE05C0989C902C1124A5
:101C7000980E15C0E89CE02C1124E80EF0E2FF2A33
:101C80000EC09E3229F4F6FC6BC140E4F42A07C072
:101C90009C3619F450E8F52A02C0983649F4F2014E
:101CA00023FD959123FF91912F01992309F0B8CF3E
:101CB000892F8554833018F08052833038F444E003
:101CC00050E0A40EB51E5FE359830FC0933631F088
:101CD000933779F0933509F056C020C0F501808123
:101CE000898342E050E0A40EB51E610101E010E0DE
:101CF00012C0F501C080D180F6FC03C06FEF7FEF0A
:101D000002C0692D70E042E050E0A40EB51EC6018D
:101D10000E94C30F8C015FE7F52214C0F501C0805B
:101D2000D180F6FC03C06FEF7FEF02C0692D70E039
:101D300042E050E0A40EB51EC6010E94B80F8C010F
:101D400050E8F52AF3FE07C01AC080E290E0B30124
:101D50000E94DE0FEA948E2D90E008171907A8F371
:101D60000EC0F601F7FC8591F7FE81916F0190E0BE
:101D7000B3010E94DE0FE110EA94015010400115FA
:101D8000110579F7EAC0943611F0993669F5F7FE36
:101D900008C0F501208131814281538184E090E0C7
:101DA0000AC0F501808191819C01442737FD40954F
:101DB000542F82E090E0A80EB91E9FE6F92257FF4B
:101DC00009C050954095309521953F4F4F4F5F4F3B
:101DD000E0E8FE2ACA01B901A1012AE030E00E9430
:101DE0000A10D82ED21840C0953729F41F2D1F7E17
:101DF0002AE030E01DC01F2D197F9F3661F090371B
:101E000020F4983509F0ACC00FC0903739F09837FE
:101E100009F0A6C004C028E030E00AC0106114FD3B
:101E2000146020E130E004C014FD166020E132E0CF
:101E300017FF08C0F501608171818281938144E0C0
:101E400050E008C0F50180819181BC0180E090E004
:101E500042E050E0A40EB51EA1010E940A10D82E47
:101E6000D2188FE7F82EF122F6FE0BC05EEFF522B6
:101E7000D91438F4F4FE07C0F2FC05C08FEEF82246
:101E800002C01D2D01C0192DF4FE0DC0FE01ED0D87
:101E9000F11D8081803319F499EEF92208C01F5F8B
:101EA000F2FE05C003C08F2D867809F01F5F0F2D4D
:101EB000F3FC14C0F0FE0FC01E1510F09D2C0BC0DB
:101EC0009D2C9E0C911A1E2D06C080E290E0B3015D
:101ED0000E94DE0F1F5F1E15C0F304C01E1510F414
:101EE000E11A01C0EE2404FF0FC080E390E0B301CB
:101EF0000E94DE0F02FF1DC001FD03C088E790E0D5
:101F00000EC088E590E00BC0802F867891F001FF2D
:101F100002C08BE201C080E2F7FC8DE290E0B301E9
:101F20000E94DE0F06C080E390E0B3010E94DE0F46
:101F30009A94D914C0F3DA94F101ED0DF11D80816A
:101F400090E0B3010E94DE0FDD20A9F706C080E219
:101F500090E0B3010E94DE0FEA94EE20C1F743CE79
:101F6000F30166817781CB012B96E2E10C94450D5C
:101F7000FC010590615070400110D8F78095909554
:101F80008E0F9F1F0895FC01615070400190011059
:101F9000D8F7809590958E0F9F1F0895DC01FC0166
:101FA000672F71917723E1F7329704C07C916D938D
:101FB00070836291AE17BF07C8F308950F931F9304
:101FC000CF93DF938C01EB018B8181FF1BC082FFDC
:101FD0000DC02E813F818C819D812817390764F4C3
:101FE000E881F9810193F983E88306C0E885F985E2
:101FF000802F0995892B31F48E819F8101969F83D3
:102000008E8302C00FEF1FEFC801DF91CF911F91A8
:102010000F910895FA01AA27283051F1203181F15A
:10202000E8946F936E7F6E5F7F4F8F4F9F4FAF4FE0
:10203000B1E03ED0B4E03CD0670F781F891F9A1FF3
:10204000A11D680F791F8A1F911DA11D6A0F711DA7
:10205000811D911DA11D20D009F468943F912AE0B3
:10206000269F11243019305D3193DEF6CF0108959B
:10207000462F4770405D4193B3E00FD0C9F7F6CFCC
:10208000462F4F70405D4A3318F0495D31FD405294
:10209000419302D0A9F7EACFB4E0A695979587952A
:1020A00077956795BA95C9F7009761057105089509
:1020B0009B01AC010A2E06945795479537952795B5
:1020C000BA95C9F7620F731F841F951FA01D08954D
:1020D000AA1BBB1B51E107C0AA1FBB1FA617B7074E
:1020E00010F0A61BB70B881F991F5A95A9F780956A
:0C20F0009095BC01CD010895F894FFCF3D
:1020FC00537472696E6700456D7066616E67656ECC
:10210C00537472696E6700D007040016000100CD8D
:10211C00CCCC3D73746F700070737461727400700A
:10212C0069737461727400736173746172740067A3
:10213C00657476616C756573002575257523257539
:10214C002A25752125750000000000000000000004
:10215C00010202030303030404040404040404053D
:10216C000505050505050505050505050505050612
:10217C0006060606060606060606060606060606F3
:10218C0006060606060606060606060606060607E2
:10219C0007070707070707070707070707070707C3
:1021AC0007070707070707070707070707070707B3
:1021BC0007070707070707070707070707070707A3
:1021CC000707070707070707070707070707070892
:1021DC000808080808080808080808080808080873
:1021EC000808080808080808080808080808080863
:1021FC000808080808080808080808080808080853
:10220C000808080808080808080808080808080842
:10221C000808080808080808080808080808080832
:10222C000808080808080808080808080808080822
:10223C000808080808080808080808080808080812
:10224C00080808080808080808080808080808000A
:00000001FF
